:020000040800F2
:1000000028D400209D010008CF2600085D230008A9
:10001000CD260008E50C0008316300080000000050
:10002000000000000000000000000000712D00082A
:10003000110D000800000000DD260008092E000850
:10004000B7010008B7010008B7010008B7010008B0
:10005000B7010008B7010008B7010008B7010008A0
:10006000B7010008B7010008B7010008B701000890
:10007000B7010008B7010008B7010008B701000880
:10008000B7010008B7010008B7010008B701000870
:10009000B7010008B7010008B7010008B701000860
:1000A000B7010008B7010008B7010008B701000850
:1000B000B7010008B7010008B7010008B701000840
:1000C000B7010008B7010008B7010008B701000830
:1000D000B701000891330008B7010008B701000814
:1000E000130D0008B7010008B7010008B7010008A8
:1000F000B7010008B7010008B7010008B701000800
:10010000B7010008B7010008B7010008B7010008EF
:10011000B7010008B7010008B7010008612E000808
:10012000B7010008B7010008B7010008B7010008CF
:10013000B7010008B7010008B7010008B7010008BF
:10014000B7010008B7010008B7010008D126000870
:10015000B7010008B7010008B7010008B70100089F
:10016000B7010008B7010008B7010008B70100088F
:10017000B7010008B7010008B7010008000000003F
:10018000B7010008B7010008DFF80CD000F026FB2B
:10019000004800476985000828D4002006488047A9
:1001A00006480047FEE7FEE7FEE7FEE7FEE7FEE75C
:1001B000FEE7FEE7FEE7FEE70D2E000889010008D6
:1001C0002DE9F05F0546002092469B46884606468C
:1001D000814640241BE0284641464746224600F01F
:1001E0002AF953465A46C01A914110D3114618466F
:1001F000224600F011F92D1A67EB01084F462246FE
:100200000120002100F008F917EB00094E41201EE3
:10021000A4F10104DFDC484631462A464346BDE8E6
:10022000F09F10B5431A934209D28318881803E04F
:1002300010F8011D03F8011D521EF9D210BD40EA4D
:1002400001039B0703D009E008C9121F08C0042A54
:10025000FAD203E011F8013B00F8013B521EF9D23B
:1002600010BDD2B201E000F8012B491EFBD270474D
:100270000022F6E710B513460A4604461946FFF772
:10028000F0FF204610BD421E12F8013F002BFBD1AB
:1002900011F8013B02F8013B002BF9D1704730B552
:1002A00005462A460B4612F8010B13F8014B08B11C
:1002B000A042F8D01CB1002802D06D1CF1E72846FE
:1002C00030BDCAB2401E10F8011F8A4202D0002978
:1002D000F9D100207047421C10F8011B0029FBD106
:1002E000801A704710B5002200E0521C835C8C5CC1
:1002F000A34201D1002BF8D1D8B2E1B2401A10BD0F
:10030000034611F8012B00F8012B002AF9D11846F9
:1003100070470246C9B200E0401C0378002BFBD1B5
:1003200002E003788B4203D0401E9042F9D20020B5
:1003300070472DE9F04791460F4680460446002657
:1003400014F8015B2DB100F087F80068405DC0072C
:10035000F6D12B2D02D02D2D18D0641E4A463946D9
:10036000204600F086F827B13968A14201D1C7F8CC
:10037000008071054FF002040BD54042002803DDD8
:1003800005F0F8FF0460A007BDE8F08746F480663A
:10039000E4E70028F8DA05F0EDFF04606FF00040B4
:1003A000F2E770B5C1F30A5201F000450024C1F331
:1003B000130140F2FF3341F480119A4201DA002028
:1003C00070BD40F233439A42A2F2334203DC524200
:1003D00000F031F800E090402C43F1D0404270BD75
:1003E00001F0004330B421F0004150EA010206D090
:1003F0000A0DA2F56072C1F31301002A02DC30BCC1
:1004000000207047440F44EAC104C100E01830BC2A
:1004100000EBC25000F0CAB8202A04DB203A00FAF0
:1004200002F1002070479140C2F1200320FA03F34B
:10043000194390407047202A04DB203A21FA02F049
:100440000021704721FA02F3D040C2F1200291400E
:10045000084319467047000000487047745203086B
:1004600010B50446FFF7F8FF0068005D00F00100DA
:1004700010BD2DE9F05F82460078002715468B46B7
:100480000AF10104B946302801D09DB113E014F8F7
:10049000010B0127782803D0582801D045B10AE084
:1004A0000DB1102D07D10027102514F8010B02E023
:1004B000082500E00A250026B0460EE005FB0800EE
:1004C00005FB06F1012701EB10461FFA80F8B6F58F
:1004D000803F00D3B94614F8010B294600F090F98B
:1004E0000028EBDABBF1000F05D00FB1641E00E06D
:1004F0005446CBF80040B9F1000F06D005F03AFFA2
:1005000002210160C81EBDE8F09F48EA0640FAE7F4
:100510000FB4002300B589B00CA900910B996FF0BE
:100520000042CB601E4B06931E4B07930423CDE97C
:1005300001321D4A089202466B46002000F002FA82
:1005400009B05DF814FB70B586B006464FF0FF3079
:100550000091CDE90101002015460C460490324679
:10056000694604A8FFF7D4FF02460498211825B174
:1005700008B1084600E020462860049800280DD005
:10058000002A02DD0098884208D0081B0094CDE9BB
:1005900001043246694604A8FFF7BAFF06B070BDF1
:1005A0007D0B00089B0B0008610400080029A8BF10
:1005B0007047401C490008BF20F00100704710B48C
:1005C000B0FA80FC00FA0CF050EA010404BF10BC41
:1005D000704749B1CCF1200421FA04F411FA0CF16E
:1005E00018BF012121430843A3EB0C01CB1D4FEAA7
:1005F00000614FEA102042BF002010BC704700EBA2
:10060000C35010440029A4BF10BC7047401C4900CF
:1006100008BF20F0010010BC70472DE9FE4F81EAB1
:10062000030404F0004421F0004100944FF0000B5B
:1006300023F0004350EA01045ED052EA03045BD089
:10064000C3F30A54C1F30A552C44A4F2F3340194C1
:10065000A0FB0254C1F3130141F48011C3F313034F
:1006600043F4801301FB024400FB034E840A970A03
:1006700044EA815447EA8357A4FB076802958D0A30
:1006800005FB07854FEA932C04FB0C542705029DBC
:100690004FEA065847EA1637B5EB08056EEB070C2C
:1006A000870E920E47EA811742EA8312A7FB0201E6
:1006B000B6EB0B0164EB00042B0D43EA0C335E1820
:1006C00044EB1C50DA465146E7FB0201C5F3130424
:1006D0004FEA0B3343EA14534FEA0432019C43EAD6
:1006E0000603A4F10C040294009CCDE900B400F0D0
:1006F00074FA03B0BDE8F08F00200146F9E72DE958
:10070000F04D81EA030404F0004B21F0004514464B
:100710004FF0000A23F0004150EA050220D054EACD
:1007200001021DD0C5F30A570246C5F31303C1F3F6
:100730001300C1F30A5640F4801543F48013A7EB6D
:100740000608101BD64608F2FD3873EB050002D3ED
:1007500008F1010801E092185B41B8F1000F03DADB
:1007600000200146BDE8F08D00204FF480110646C0
:1007700084460EE0171B73EB050705D3121B63EBD2
:10078000050306434CEA010C49084FEA3000921871
:100790005B4150EA0107EDD152EA030012D082EA30
:1007A000040083EA0501084305D0101BAB4106D2C3
:1007B0000122002306E000224FF0004302E06FF028
:1007C000010253101AEB06004CEB085110EB0A0023
:1007D00041EB0B01BDE8F04D00F0F0B9064C074DC0
:1007E00006E0E06840F0010394E807009847103401
:1007F000AC42F6D3FFF7CCFCD8530308F8530308F8
:100800003A2800D2303820F02002412A01D3A2F148
:100810003700884201D34FF0FF3070472DE9FF4F7A
:10082000087883B09946FF2805D0491C2D2804D0AC
:100830000024002008E000200BE00124F9E700EB91
:10084000800003EB4000491C0B78FF2BF7D104B16B
:10085000404200230293147819461D462D2C01D0E6
:100860002B2C04D1521C2D2C13D000240294AA4608
:100870001478FF2C0FD00A25A3FB057801FB058116
:100880004FF0000C03FB0C11521CE3194AEB010161
:10089000EEE70124EAE7814453EA010002D019F5AA
:1008A000C87F06DA03980021C0E9001107B0BDE84F
:1008B000F08F0025AE4E2F46DFF8B882184600F0C4
:1008C000DAF9CDE90001B9F1000002DAC9F100045A
:1008D00000E004460023A74A1AEB030B42EB045A3C
:1008E00012E0E00707D02A46334638464146FFF774
:1008F00094FE074688462A46334610461946FFF7B7
:100900008CFE05460E466410002CEAD1DDE900019C
:10091000B9F1000F5A46534606DAFFF7F0FE3A46A1
:100920004346FFF7ECFE05E0FFF777FE3A46434605
:10093000FFF773FE029A0AB181F00041039AC2E9FF
:100940000001B3E72DE9FF4F1F468DB0D7E90146FF
:100950004FF0FF382E2045464FF000090B90B96943
:100960006D1C0E988847396A824688470028F6D160
:10097000BAF1FF3F0AD024F4D064002E11DDBAF1A1
:100980002B0F08D0BAF12D0F0BD102E0404611B069
:100990008DE744F48064B9696D1C0E9888478246DF
:1009A000761E6946600501D52D2000E02B208DF8CC
:1009B000000001F1010B0DF1200809E0B9696D1C7F
:1009C0000E98884782460F9844F40074761E05609E
:1009D000002E02DDBAF1300FF0D00B998A453ED1DE
:1009E00044F0800406E00F99681CA9F1010944F461
:1009F00000740860B9696D1C761E0E98884782469F
:100A00003028F0D02BE00B998A4505D1200603D47D
:100A100044F08004761E18E0504605F0D4FC08B37C
:100A20000DF11301761E44F400748B4508D2AAF12F
:100A300030000BF8010B200607D5A9F1010003E0F7
:100A4000200602D409F101008146A00502D50F99C4
:100A5000681C0860B9696D1C0E9888478246002E94
:100A6000D1DC53E0002E51DDBAF1650F02D0BAF1AE
:100A7000450F4BD1A00549D5B9696D1C24F44074CC
:100A8000761E0E9888478246002E0CDD2B2804D057
:100A9000BAF12D0F07D144F48074B9696D1C0E981A
:100AA00088478246761EE00501D52D2100E02B21E6
:100AB00008F8011BCDF82C8021E00DF12901761EEC
:100AC00044F4007488450CD2AAF1300010F0FF0005
:100AD00088F8000002D10B99884509D908F101086E
:100AE00006E0E00501D5244801E042F20F7081469E
:100AF000B9696D1C0E98884782460F980560002ED4
:100B000004DD504605F05FFC0028D6D1F9690E9847
:100B10008847FF208BF8000088F80000002006902E
:100B200007904B466A4608A906A8FFF777FEA0057E
:100B300002D46FF001002AE714F0240F0AD0E00776
:100B400014D1DDE906123868031D3B600068C0E976
:100B500000120BE0DDE90601FFF742FC0146E00769
:100B600004D13868021D3A600068016028460EE72B
:100B7000000014400000F03FF1D8FFFF426842B18E
:100B8000016811F8013B23B1521EC0E9001218465A
:100B900070470121C160881E704742685AB1C3681E
:100BA000016843B983688B4205D0491E521CC0E9D5
:100BB0000012002070474FF0FF30704710B5141E30
:100BC00073F1000408DA401C41F1000192185B4106
:100BD0001A4301D120F0010010BD2DE9F04D9246DD
:100BE0009B4611B1B1FA81F202E0B0FA80F22032F4
:100BF0009046FFF711FC04460F4640EA0A0041EA1E
:100C00000B0153465A46084313D0114653EA0100DC
:100C100019D0C8F140025046FFF70DFC05460E46BC
:100C2000504659464246FFF7F7FB084305D00120DE
:100C300004E020463946BDE8F08D0020054346EA31
:100C4000E0762C4337430A986305E40AA0EB0800DA
:100C50000022FD0A44EA47540A3002D5002001462A
:100C6000E9E7010510196941DDE908450019694105
:100C7000BDE8F04DA2E70EB540F2334202920022E9
:100C8000CDE900221346FFF7A8FF03B000BD70B501
:100C90008C1810F8015B15F0070301D110F8013B27
:100CA0002A1106D110F8012B03E010F8016B01F8AE
:100CB000016B5B1EF9D12B0705D40023521E0DD406
:100CC00001F8013BFAE710F8013BCB1A921C03E054
:100CD00013F8015B01F8015B521EF9D5A142D8D38C
:100CE000002070BDFEE7000010B500F0C9F905490D
:100CF000486105A007F01AFCBDE8104003A005F00C
:100D000019BB0000000000206F6B00000D0A0000FE
:100D100070474FF4806000F0B7B806F01FBF90F83E
:100D20003510022903D0802141650120704705213B
:100D300080F835100068016821F001010160002091
:100D40007047000070B5044600F09AF90546601C33
:100D500002D004480078044400F092F9401BA042FD
:100D6000FAD370BD28000020F0B5B0F5806F7BD1BC
:100D70003E48D0F82812DFF8F8E03E4B4FF0010C67
:100D8000002251B9D97841B91A71DEF82C12012923
:100D900001D183F804C083F803C0D0F828020128E9
:100DA00062D1D87801285FD1DEF82C02324C31496B
:100DB0002778324C097A2678314C2578314C2478C2
:100DC00020BB1879012821D12A480078401E40B262
:100DD00031B1012909D002290CD0032914D10EE028
:100DE0001870002810DA781E0DE0187000280BDA51
:100DF000701E08E01870002806DA681E03E01870FC
:100E0000002801DA601E187083F809C0DEF82C0291
:100E1000012828D1187930BB31B101290BD0022922
:100E200010D003291DD115E01878401C40B218706D
:100E3000B84215DA15E01878401C40B21870B0427C
:100E40000EDA0EE01878401C40B21870A84207DA9B
:100E500007E009E01878401C40B21870A04200DB9F
:100E60001A7083F809C0DA70F0BD00000000434238
:100E7000008042426F0100206C0100206D010020C3
:100E80006E01002084000020044910B50A68024267
:100E900002D00860FFF768FF10BD0000143C01405D
:100EA0002DE9F84FDFF88C91002209F1040A0AF1CC
:100EB000040B4FF00F080BF1040E01260B6896404F
:100EC0003340B34271D14C68022C01D0122C11D1A5
:100ED000D40800EB84073D6A5407E40E08FA04FCCA
:100EE00025EA0C05D1F810C00CFA04FC4CEA050CFC
:100EF000C7F820C007685400032591F804C0A54036
:100F00000CF0030CAF430CFA04FC4CEA070CC0F8DD
:100F100000C04F68012F05D0022F03D0112F01D040
:100F2000122F11D18768D1F80CC0AF430CFA04FC22
:100F30004CEA070CC0F808C04768B7430E79C6F3FF
:100F4000001696403E434660C668AE438D68A54095
:100F50003543C5604C68E40065D5374C256845F4D9
:100F600080452560246822F0030504F48044009441
:100F7000324C2E19D6F808789407250F08FA05F494
:100F8000A7432F4CA04201D1002424E02D4CA042C5
:100F900001D101241FE02C4CA04201D102241AE00F
:100FA0002A4CA04202D1032415E03CE0284CA04288
:100FB00001D104240FE0274CA04201D105240AE00E
:100FC000254CA04201D1062405E0244CA04201D1C9
:100FD000072400E00824AC403C43C6F80848D9F890
:100FE00000404D464E689C43F60300D51C432C60E0
:100FF000DAF8004055464E689C43B60300D51C43C2
:101000002C60DBF800405D464E689C43F60200D53C
:101010001C432C60DEF8004075464E689C43B602C7
:1010200000D51C432C60521C102AFFF446AFBDE8CB
:10103000F88F0000003C014044380240003001407D
:10104000000002400004024000080240000C024080
:10105000001002400014024000180240001C024030
:101060000069084000D0012070470AB181617047D3
:101070000904FBE701480068000C7047002004E009
:1010800001488068704700002800002002488168FD
:10109000027811448160704728000020094810B58B
:1010A000016841F400710160016841F480610160F0
:1010B000052000F057F80F2000F006F800F024F8A3
:1010C000002010BD003C024070B50D4D04464FF4A9
:1010D0007A712878B1FBF0F00A490968B1FBF0F0A9
:1010E00000F082FC48B9102C07D200222146501E85
:1010F00000F018F800206C6070BD012070BD000089
:1011000028000020240000207047002809DB00F0A0
:101110001F02012191404009800000F1E020C0F849
:1011200000117047F0B40E4B1B68C3F30223C3F1E8
:101130000704042C00D904241D1D072D01D200230F
:1011400000E0DB1E012606FA04F56D1E0D409D40F1
:101150009E40761E164045EA0601F0BC05F0FAB83E
:101160000CED00E0064A00F0070110684FF6FF039F
:10117000184040EA0120034908431060704700000E
:101180000CED00E00000FA052DE9F0470D460400E3
:1011900065D0DFF81491D9F80000EFB200F00F002D
:1011A000A84207D289F80070D9F8000000F00F00BB
:1011B000A84254D120683D4E810712D5400703D57F
:1011C000306840F4E05030602078000703D5306884
:1011D00040F4604030603068A16820F0F0000843BF
:1011E00030602078C0072DD0304960680839012868
:1011F00012D0022813D0032811D0096889070029CA
:101200002DDA316821F0030101433160FFF738FF27
:10121000804641F2883A0EE009688903EFE70968E1
:101220008901ECE7FFF72CFFA0EB0801514502D93B
:101230000320BDE8F0873068616800F00C00B0EB77
:10124000810FEFD1D9F80010484601F00F01A942F3
:1012500007D90770006800F00F00A84201D00120F4
:10126000E7E72078400705D53068E16820F4E050D2
:10127000084330602078000706D53068216920F4E3
:10128000604040EAC100306000F036F83168084A3A
:10129000C1F30311515CC840064908600F20FFF7F5
:1012A00013FF0020C5E70000003C02400838024060
:1012B000E99B0008240000200448054900680968EB
:1012C000044AC1F38221515CC840704724000020C9
:1012D00008380240F99B000804480549006809687D
:1012E000044AC1F34231515CC840704724000020D9
:1012F00008380240F99B0008154810B5006810F046
:101300000C01144813D0431004290FD008290ED122
:101310000F4C241F216801F03F022168490207D5C4
:101320002068C0F38810A0FB030106E0184610BD3A
:101330002168C1F38811A1FB00010023FEF740FFE3
:101340002168C1F30141491C4900B0FBF1F010BD17
:10135000083802400024F4002DE9F84F040073D04F
:101360002078BD4DC00748D0BB4808300168C1F3A4
:101370008101012908D00068C0F3810002280AD148
:10138000281D0068400206D52868800335D56068AE
:101390000028E4D031E06068B0F5803F10D0B0F5AF
:1013A000A02F286810D020F480302860286820F40E
:1013B000802028606068A0B1FFF762FE06460CE05E
:1013C000286840F48030F4E740F480202860F7E794
:1013D000FFF756FE801B642872D828688003F7D573
:1013E0000BE0FFF74DFE064604E0FFF749FE801BC9
:1013F0006428F1D828688003F7D42078DFF85C925D
:1014000080074FF0000A3ED593480830016811F07C
:101410000C0F09D00068C0F3810002280BD18E4860
:10142000001D0068400206D42868800715D5E068D2
:10143000012809D111E0E068B8B10120C9F8000025
:10144000FFF71EFE064605E003E1FFF719FE801BCD
:101450000228C1D828688007F7D52868216920F0BC
:10146000F80040EAC10028600DE0C9F800A0FFF7CD
:1014700007FE064604E0FFF703FE801B02281FD884
:1014800028688007F7D42078000722D5724F744966
:101490006069743770B101200860FFF7F1FD0646FE
:1014A00004E0FFF7EDFD801B022809D838688007AB
:1014B000F7D50EE0C1F800A0FFF7E2FD064605E013
:1014C00081E0FFF7DDFD801B02287CD838688007AB
:1014D000F7D42078400769D5DFF87CB14FF00008D9
:1014E0000BF1400BDBF80000C0000CD4DBF800105F
:1014F00041F08051CBF80010DBF800004FF00108FC
:1015000000F080500090574F3868C0050FD43868FD
:1015100040F480703860FFF7B3FD064604E0FFF743
:10152000AFFD801B02284ED83868C005F7D54A4F5A
:10153000A068703701280FD00528386810D020F037
:1015400001003860386820F004003860A068B0B14D
:10155000FFF796FD06460EE0386840F00100F4E71C
:1015600040F004003860F7E7FFF78AFD811B41F285
:101570008830814265D838688007F5D50DE0FFF7DF
:101580007FFD064606E0FFF77BFD811B41F28830B8
:10159000814256D838688007F5D4B8F1000F05D0DD
:1015A000DBF8001021F08051CBF80010A069C8B31F
:1015B000294908310968C1F38101022949D002286B
:1015C000504607D000E03CE0C9F86000FFF758FD46
:1015D000044639E04F46C9F86000FFF751FD064662
:1015E00004E0FFF74DFD801B02282AD828688001FF
:1015F000F7D4D4E907010843A16A1B4A490802EB62
:101600000141626A41EA8211084394F82C1040EAD1
:1016100001611148001D016001203866FFF730FDAF
:10162000044605E013E0FFF72BFD001B022808D855
:1016300028688001F7D50AE0FFF722FD001B022889
:1016400002D90320BDE8F88F28688001F4D4002077
:10165000F8E70120F6E700000038024000004742AA
:10166000800E4742007000400000FFFF70B504008C
:1016700004D094F85100002510B106E0012070BD9F
:1016800084F85050204600F037F8022084F85100CA
:101690002068016821F040010160D4E9010108439C
:1016A000D4E903121143084361690843218B01F413
:1016B00000710843E1690843216A0843A16A0843AD
:1016C00021680860A069042101EA1040616A0843AA
:1016D00021684860A06AB0F5005F02D12168E06A25
:1016E00008612068C16921F40061C161656501205C
:1016F00084F85100002070BDF0B5194887B001682A
:1017000041F001010160016801F0010105910168EA
:1017100041F002010160006800F0020005901048ED
:101720001430016841F4805101600068052400F420
:1017300080500590602002250126032704948DE83F
:10174000E10069460748FFF7ABFB202004948DE8D1
:10175000E10069460448FFF7A3FB07B0F0BD0000B5
:101760003038024000000240000402402DE9F84FEA
:10177000044690F85000012500270A9E984692469C
:101780008B4601280FD0012084F85000FFF778FC29
:1017900094F8511081466268404601290CD0B2F598
:1017A000827F07D102E00220BDE8F88FA2680AB963
:1017B000042901D0022703E1BBF1000F3CD0BAF1AC
:1017C000000F39D0B8F1000F36D094F85110042929
:1017D00002D0052184F8511000216165C4F838A0B9
:1017E000A4F83E80A4F83C80C4F830B0A4F8368059
:1017F000A4F8348021646164A16A4FF40058414523
:1018000009D121680A6822F400520A6021680A6836
:1018100042F400520A6021680A68520603D40A683A
:1018200042F040020A60E168B1F5006F616805D0DE
:10183000F1B301284DD08DE00127C1E009B10128A5
:1018400040D1206B21680088C860206B801C206319
:10185000E08E401EE08635E020688168890717D554
:10186000E18EA9B1012D13D1216B0988C160206BD4
:10187000801C2063E08E401EE086E08E002538B993
:10188000A06A404504D12068016841F4805101609C
:1018900020688168C9070DD0E18F59B1C068A16B7C
:1018A0000880A06B801CA063E08F401EE08700E0F2
:1018B0000FE00125FFF7E4FBA0EB0900B04201D3E4
:1018C000701C5DD1E08E0028C6D1E08F0028C3D106
:1018D00046E0206B216800780873206B401C206371
:1018E000E08E401EE08635E020688168890717D5C4
:1018F000E18EA9B1012D13D1216B09780173206B01
:10190000401C2063E08E401EE086E08E002538B942
:10191000A06A404504D12068016841F4805101600B
:1019200020688168C9070BD0E18F49B1C068A16BFD
:101930000870A06B401CA063E08F401EE08701256B
:10194000FFF79EFBA0EB0900B04202D3701C01D050
:1019500016E0AEB1E08E0028C6D1E08F0028C3D1DA
:10196000A06A404510D10122334611462046CDF8E9
:10197000009001F0B3F928B1606D40F0020060659D
:1019800003271DE02068C06820688168C90607D564
:10199000616D41F0020161654FF6EF7181600127D1
:1019A0004A463146204601F06DF918B10127202042
:1019B000606505E0A06818B92068C168806800907B
:1019C000012084F85100002084F850003846EBE6EE
:1019D0004FF0E0210428086903D020F004000861DA
:1019E000704740F00400FAE710B5401EB0F1807F68
:1019F00001D3012010BD4FF0E02460610F2160177A
:101A000004F0A8FC0020A06107202061002010BD88
:101A10007047704710B5040003D094F83D0010B132
:101A200007E0012010BD002084F83C00204600F0B3
:101A30000DF8022084F83D00211D206801F02AFAEB
:101A4000012084F83D00002010BD000000B50068B2
:101A5000154987B0884225D114480021026842F018
:101A600001020260006800F0010005900F4810308C
:101A7000026842F020020260006800F02000059039
:101A80004FF48070CDE900010120029069460848BA
:101A9000FFF706FA012202213720FFF743FB372028
:101AA000FFF733FB07B000BD0014004030380240A0
:101AB000000002400168CA6842F00102CA60006882
:101AC000816801F00701062903D0016841F0010196
:101AD000016000207047704770B5044600680169D6
:101AE0004FF00005C943890715D4C168C943890768
:101AF00011D4E91E016101202077206880698007E8
:101B0000204602D0FFF7E7FF04E000F098F82046F7
:101B100000F096F8257720680169C943490717D472
:101B2000C168C943490713D46FF004010161022061
:101B300020772068806910F4407F204602D0FFF7AC
:101B4000CAFF04E000F07BF8204600F079F8257722
:101B500020680169C943090716D4C168C943090748
:101B600012D46FF008010161042020772068C06959
:101B70008007204602D0FFF7AEFF04E000F05FF8D8
:101B8000204600F05DF8257720680169C943C90641
:101B900017D4C168C943C90613D46FF0100101619D
:101BA000082020772068C06910F4407F204602D0CA
:101BB000FFF791FF04E000F042F8204600F040F803
:101BC000257720680169C943C90708D1C168C9439D
:101BD000C90704D1891E0161204600F033F820684E
:101BE0000169C943090609D4C168C943090605D476
:101BF0006FF0800101612046FFF70AFF206801694C
:101C0000C943490609D4C168C943490605D46FF0E0
:101C100040010161204600F03DF920680169C94397
:101C200089060BD4C168C943890607D46FF0200127
:101C300001612046BDE87040FFF7EBBE70BD704704
:101C4000704700002DE9F043684999B088427DD182
:101C50006748D0F82002674D00244FF0010818B102
:101C60006C7085F80280A9E06878401CC0B268708A
:101C70000828F8D3A8780028F5D05E49AC70287AF7
:101C800091F9001030B101281AD002281CD0032885
:101C900066D11CE021B1012905D00229F8D105E067
:101CA00085F808805BE00220287258E00320287243
:101CB00051A15248FEF724FB504806F0EFFC4EE0DD
:101CC000002976D12C724AE009B92C722C700026BA
:101CD0004B4FDFF8309105E057F8260006F0FCFD89
:101CE000761CF6B299F800008642F5D395F900000B
:101CF00040B157F82030414A4349444805F0CCFAF6
:101D000028B353E064216846FEF7B2FA2F213B481E
:101D1000FEF7FFFA06001ED03848FEF7DCFA074649
:101D20003046FEF7D8FA381AC2B234496846FEF790
:101D300078FA69463148FEF7E3FA304806F0AEFC1F
:101D400033A004F0F7FA2D4937A001E04BE008E09A
:101D500004F0F0FA03E02C7238A004F0EBFA2C70D7
:101D600027E02948817E09B3007BC00616D537A13C
:101D70002248FEF788FA95F9000057F820101F480E
:101D8000FEF781FA1D4806F089FC31A004F0D2FA72
:101D90001A4925A004F0CEFA2C7007E032A004F016
:101DA000C9FA194936A01A3104F0C4FA174805F0E7
:101DB00069FA85F8058085F8098002E068790128CC
:101DC00011D1A879324918B9C1F8908285F80680F6
:101DD000E879401CC0B2E8710F2804D3C1F89042E2
:101DE0006C71AC71EC7119B0BDE8F083E8CF0020E4
:101DF000000040426F010020303A0000E8CE002091
:101E0000880000208400002040C4002060C500201D
:101E1000B7B5BBD8C9CFD2BBB2E3CEC4BCFEBCD031
:101E2000A3A10D0A00000000CEC4BCFEC4BFC2BC0A
:101E3000CEAAA3BA25730D0A00000000B7B5BBD81F
:101E4000D7DCB2CBB5A5A3A10D0A00002F0000007E
:101E5000B8C3D1A1CFEECAC7D2BBB8F6CEC4BCFEC0
:101E6000BCD0A3A10D0A0000B8C3D1A1CFEECAC750
:101E7000D2BBB8F6CEC4BCFEA3A10D0A0000000080
:101E8000CEC4BCFEC3FBCEAAA3BA25730D0A0000C4
:101E900000004342704710B5040013D0242084F89A
:101EA00039002068C16821F40051C160204600F06B
:101EB000C6F80020E06384F8390084F83A0084F81A
:101EC000380010BD012010BD7047000070B50268D9
:101ED00004461068D168536910F00F0F50D003F01A
:101EE000010501F4907635435DD0C20705D0CA05DF
:101EF00003D5E26B42F00102E263420705D5DA073F
:101F000003D0E26B42F00202E263820705D5DA07F2
:101F100003D0E26B42F00402E263020705D5DA0760
:101F200003D0E26B42F00802E263E26B002A33D096
:101F3000800604D5880602D5204601F025F82068E1
:101F40004069E16BC0F38010090700D428B3204634
:101F500001F00CF82068416949061AD5416921F061
:101F600040014161606BA0B11B490165606BFEF7E8
:101F7000D6FE002810D0606B016DBDE870400847A8
:101F8000830610D58B060ED52046BDE8704000F0C4
:101F9000FBBF2046FFF798FF70BD2046FFF794FF78
:101FA0000020E06370BD030606D50B0604D520466D
:101FB000BDE8704001F08AB94006F3D54806F1D576
:101FC000D168204621F04001D160202184F83910E9
:101FD00000F070F970BD00005D2F000870B50400BE
:101FE00004D094F83900002510B106E0012070BD3E
:101FF00084F83850204600F023F8242084F8390073
:102000002068C16821F40051C160204601F008F841
:102010002068016921F4904101612068416921F043
:102020002A0141612068C16841F40051C160E56343
:10203000202084F8390084F83A00002070BD7047F1
:10204000F0B50068204987B088423BD11F48002482
:10205000016841F010010160006800F01000059077
:102060001A481438016841F001010160016801F06B
:1020700001010591016841F001010160006802253C
:1020800000F0010005904FF400700090CDE901547C
:1020900007260F4FCDE9034669463846FEF700FF95
:1020A00068020090CDE90154CDE9034669463846FF
:1020B000FEF7F6FE002202212520FFF733F8252047
:1020C000FFF723F807B0F0BD00100140443802408C
:1020D0000000024090F83A30202B22D1F9B1F2B141
:1020E00090F83830012B1CD081628285C285002196
:1020F000C163222280F83A2080F838100168CA684B
:1021000042F48072CA6001684A6942F001024A6181
:102110000068C16841F02001C160002070470120C3
:10212000704702207047000010B5164C024604F1BB
:102130003000824224D12178A26811700122214608
:10214000FFF7C8FF10B110A004F0F4F8A068401C1D
:10215000A060616801F58062904200D3A160D4E97B
:102160000201884202D10FA004F0E4F8A26A22B171
:10217000217AE068091AC9B29047206F401C206795
:1021800010BD000044090020B4AEBFDA31B4F2BF84
:10219000AABDD3CAD5D6D0B6CFCAA7B0DC210D0A06
:1021A00000000000B4AEBFDA31B6C1C8A1BBBAB4FA
:1021B000E6C7F8D2E7B3F6210D0A00002DE9F8438F
:1021C000044690F839001E4617460D46202850D187
:1021D000A5B19FB194F8380001284AD0012084F8B5
:1021E00038004FF00008C4F83C80212084F8390002
:1021F000FEF746FFA7848146E78426E00120BDE87C
:10220000F883E08C401EE084A0684B46B0F5805F08
:102210004FF000024FF080012046009603D001F0FD
:1022200086F8E8B90DE001F082F8C8B9288821687D
:10223000C0F308004860206908B16D1C05E0AD1CC2
:1022400003E0216815F8010B4860E08C0028D8D124
:102250004B46002240212046009601F068F808B164
:102260000320CCE7202084F8390084F8388000204F
:10227000C5E70220C3E790F83930202B18D1A9B167
:10228000A2B190F83830012B12D001628284C2844E
:102290000021C163212280F8392080F838100068BD
:1022A000C16841F08001C160002070470120704783
:1022B0000220704770474069806880B27047D0F84C
:1022C000CC000068C0F341407047084490F89F0379
:1022D000704700EB8100D0F85403704710B500221E
:1022E00004461346C0F8102304EB8200C0F81833EC
:1022F000C0F85433A01880F89033521CD2B20F2A81
:10230000F2D30820A4F8B603204603F045F820468F
:1023100002F03AFE204602F078FD0121204603F04B
:102320009BF8204602F0B1FD204602F053FE00204B
:1023300010BDD0F810037047D0F81403704710B5E3
:1023400003F015F8002010BD0022431883F89F23E6
:1023500000EB4113C3F8C42302F058BFFEE70000AE
:1023600070B51E4886B00025016841F0200101606B
:10237000016801F020010591016841F04001016010
:102380000068012400F0400005904FF48060009048
:102390001348CDE90104134E69463046FEF780FD2F
:1023A000E002CDE90005694602940F48FEF778FD8A
:1023B0001020CDE9000469463046CDE90245FEF71C
:1023C0006FFD002202212820FEF7ACFE2820FEF738
:1023D0009CFE00F04BFD06B070BD0000303802409E
:1023E00000003110001802400014024010B5084BE4
:1023F000084A0949094806F0B5FD084807F05DF9A3
:102400000021064807F069F905490120087010BD50
:10241000099400084F9700088C51030854CE0020FF
:102420007801002070B5154886B00025016841F09C
:1024300008010160016801F008010591016841F09F
:10244000400101600068012600F0400005904FF453
:1024500040600224CDE90006CDE9025469460848EF
:10246000FEF71EFD4420CDE90006CDE90254694681
:102470000448FEF715FD06B070BD0000303802407C
:10248000000C0240001802402DE9FC5F00252F4699
:10249000864806F0CCFB8649844806F017FD834841
:1024A00006F02AFD8148DFF80C9210F88E1F427862
:1024B00030F84A8C891A491C99F90000CCB20528D9
:1024C00001D4001FC5B27C480078C0F10500002887
:1024D00000DDC7B27948007830B1012838D0022831
:1024E0006CD0032833D19FE00026DFF8D4A105F19A
:1024F000050B29E05AF827106C4806F08BFCA8EB76
:10250000000000EBD070C0F34F000190012167483C
:1025100006F0D4FC99F9000087420BD116FB04F2B7
:10252000434600216148009406F090FB00215F487B
:1025300006F0C4FC5AF8273016FB04F25B480199F8
:1025400006F034FC761CF6B277195F45D2D3A2E0D0
:10255000DFF86CA100260AF1140A05F1050B29E049
:102560005AF82710514806F055FCA8EB000000EB84
:10257000D070C0F34F00019001214C4806F09EFC42
:1025800099F9000087420BD116FB04F24346002163
:102590004648009406F05AFB0021444806F08EFCA1
:1025A0005AF8273016FB04F24048019906F0FEFB6A
:1025B000761CF6B277195F45D2D36CE0DFF800A144
:1025C00000260AF12C0A05F1050B29E05AF827101C
:1025D000364806F01FFCA8EB000000EBD070C0F3FB
:1025E0004F0001900121314806F068FC99F9000084
:1025F00087420BD116FB04F2434600212B4800947E
:1026000006F024FB0021294806F058FC5AF8273030
:1026100016FB04F22548019906F0C8FB761CF6B2B9
:1026200077195F45D2D336E00026E81BDFF894A087
:1026300000F1050B2CE05AF827101C4806F0EAFBC5
:10264000A8EB000000EBD070C0F34F000190012117
:10265000164806F033FC99F9000087420BD116FBAF
:1026600004F2434600211148009406F0EFFA0021DD
:102670000E4806F023FC5AF8273056EA050016FBF0
:1026800004F210D00121094806F090FB761CF6B246
:1026900077195F45CFDB054806F0F9FB0A490020B2
:1026A0000870BDE8FC9F0199EDE7000054CE0020C2
:1026B000064803086F0100208400002077010020F5
:1026C000240100208800002078010020FEE77047E8
:1026D000014801F088BF000014020020704700008C
:1026E0000C4800B5026887B0002142F00202026087
:1026F000006800F0020005904FF40060CDE9000191
:102700000120CDE9020169460348FEF7C9FB07B085
:1027100000BD0000303802400004024010B5012224
:1027200010210448FEF7A1FCBDE81040FF2000F096
:102730007FBA00000000024070B505464FF6FF74F6
:1027400001E0641EA4B2FF2000F090F9A84202D07C
:10275000002CF6D102E00CB1002070BDFF2070BD4E
:102760002DE9F84300F058F9382000F071FA002400
:10277000FF2000F05DFA641CA4B20A2CF8D31424E4
:1027800000219522084600F0ABF90546012802D049
:10279000641EA4B2F4D2474E0027012D37707AD1BF
:1027A00087224FF4D571082000F09AF94FF6FE7891
:1027B00001281ED001220021372000F091F90122CA
:1027C0000021292000F08CF901284FD80220307018
:1027D000444601220021372000F082F90122002125
:1027E000292000F07DF905004DD0641EA4B2F0D27E
:1027F00049E000246F46FF2000F038F93855641C8A
:10280000A4B2042CF7D39DF80200012843D19DF80F
:102810000300AA283FD144464FF0804801220021FE
:10282000372000F05DF901224146292000F058F9D7
:10283000050002D0641EA4B2F0D2B4B1012200217E
:102840003A2000F04DF980B90024FF2000F00EF985
:102850003855641CA4B2042CF7D39DF80000400640
:1028600001D5062000E00420307014E00120307013
:10287000444601220021104600F032F9050002D042
:10288000641EA4B2F5D22CB101225102102000F036
:1028900027F900B13770FFF741FF002000F0D8F9A9
:1028A000307810B10020BDE8F8830DB12846FAE772
:1028B000AA20F8E73C0000207CB501208DF800003C
:1028C000C1021D48FEF7CCFB10B900208DF80000B6
:1028D0009DF8000028B119A003F02CFD9DF8000020
:1028E0007CBD1CA04FF4FA7400681B4D019012E0EF
:1028F0001AA003F01FFD2046FEF724FA01228021D2
:102900002846FEF7B2FB2046FEF71CFA0022802183
:102910002846FEF7AAFBFFF723FF0028E8D104F0C2
:1029200083FC144801220BA1006804F06BFD01A890
:1029300005F014FFD2E70000000402404E6F74203F
:1029400064657465637465642053442043617264F4
:102950000D0A0000303A00000000024053442043BA
:1029600061726420496E6974204572726F72210D24
:102970000A0000007C0000202DE9F04106461848BE
:1029800015460078062800D049024FF40077012D43
:102990004FF0010219D0122000F0A2F8394630465B
:1029A00000F020F86D1E044606F5007615F0FF05D0
:1029B00001D0002CF2D0012200210C2000F090F870
:1029C000FFF7ACFE2046BDE8F081112000F088F84A
:1029D0000400F5D13946304600F004F80446EFE72C
:1029E0003C00002070B504460D46FE20FFF7A4FE13
:1029F00028B1012070BD00F01BF904F8010B6D1E19
:102A0000ADB24FF0FF00F6D200F012F9FF2000F057
:102A10000FF9002070BD0000124810B5016886B0A3
:102A200041F00101016000680F4C00F001000590C9
:102A3000102000900120019002900220039069462E
:102A40002046FEF72DFA012210212046FEF70DFB4D
:102A500000F0C6F8012210212046FEF706FB06B062
:102A600010BD0000303802400000024000F0E0B825
:102A700010B5002210210548FEF7F7FA00F05FF8C4
:102A8000002802D0FFF74AFE012010BD00000240DE
:102A900070B50C46054600F052F808B1012070BD33
:102AA000204600F0C5F8FD2C18D000244FF4007625
:102AB000285D00F0BDF8641CA4B2B442F8D3FF2036
:102AC00000F0B6F8FF2000F0B3F8FF20FFF7CEFFCC
:102AD00000F01F00052801D0022070BD002070BD4D
:102AE00070B516460C460546FFF718FEFFF7C0FF07
:102AF00008B1FF2070BD45F0400000F099F8200EAD
:102B000000F096F8C4F3074000F092F8C4F30720F1
:102B100000F08EF8E0B200F08BF8304600F088F854
:102B20000C2D02D1FF2000F083F81F24FF20FFF7B7
:102B30009DFF0106DED5641EE4B2F7D270BD70B50C
:102B400000246FF07F45FF20FFF790FFFF2804D09F
:102B5000641CAC42F7D3012070BD002070BD0000A2
:102B600070B506461D4815460C460078062800D06C
:102B70004C02012D13D0012809D001220021372059
:102B8000FFF7AEFF012229461720FFF7A9FF012218
:102B900021461920FFF7A4FF04000AD01AE0012201
:102BA00021461820FFF79CFF040013D1FE21304678
:102BB0000DE0FC213046FFF76BFF6D1E06F5007639
:102BC00015F0FF0501D00028F3D0FD210020FFF70C
:102BD0005FFF0446FFF7A2FD204670BD3C000020C9
:102BE00010B5124C1048022120604FF482706060D2
:102BF0000020A060C4E90301012161614902A161D3
:102C00003821C4E907106062A0620720E062204614
:102C1000FEF72CFD2068016841F040010160BDE82D
:102C20001040FF2000F004B800300140C01900201F
:102C300001B582B04FF47A700090012301AA02A975
:102C40000248FEF793FD9DF804000EBDC019002058
:102C50000B4A10B511680B6823F040030B60116834
:102C60000B684FF6C77423400B6011680B68034371
:102C70000B601068016841F04001016010BD000068
:102C8000C019002038B504461248134D4FF47A732A
:102C90000068B0FBF5F0584300906068B0F5827FA3
:102CA0000DD10B46009200228021204600F016F83C
:102CB00070B1606D40F020006065032038BD009861
:102CC00030B1401E009020688068C0430006F6D5F1
:102CD000002038BD2400002000366E012DE9F041AF
:102CE0001D4617460E460446DDF8188008E0681CAD
:102CF00006D0FEF7C5F9A0EB0800A8420BD255B1EB
:102D00002068806836EA000030D00020B842EED15A
:102D10000020BDE8F0812068416821F0E0014160B9
:102D20006068B0F5827F0BD1A068B0F5004F02D08B
:102D3000B0F5806F04D12068016821F04001016086
:102D4000A06AB0F5005F09D12068016821F4005144
:102D500001602068016841F400510160012084F89D
:102D60005100002084F850000320D2E70120CDE775
:102D70007047000070B5214C92B00025266846F0DF
:102D800080562660246804F0805411941C4C2668F8
:102D900046F48046266024680DF1240C04F4804437
:102DA00011940124009424040194022406948CE8D4
:102DB0000D006605CDE907616846FEF7CDFA00B162
:102DC000FEE70CA90F2081E831004FF4A0500F90CE
:102DD0004FF48050109005210CA8FEF7D5F900B1F2
:102DE000FEE7FEF747F941F20101884204D10548A8
:102DF000016841F48071016012B070BD403802403A
:102E000000700040003C0240FEF740B910480168E5
:102E100041F4700101600F48016841F00101016057
:102E20000C4A00210832116002680B4B1A40026004
:102E3000031D0A4A1A60026822F4802202600548D3
:102E40000C30016002495806803908607047000064
:102E500088ED00E000380240FFFFF6FE103000244D
:102E60000148FEF739BE0000E8CF0020084810B541
:102E70000649016040F247314160C721C160FEF759
:102E8000C9FDBDE810400248FEF714BE0014004022
:102E9000E8CF0020F0B50268254D264E264FDFF81A
:102EA0009CC0274B4FF0804EA84209D0704507D0F8
:102EB000B04205D0B84203D0604501D0984203D15A
:102EC00022F070044A682243A8421BD0704519D0F2
:102ED000B04217D0B84215D0604513D0984211D0F7
:102EE000184CA0420ED0184CA0420BD0174CA04258
:102EF00008D0174CA04205D0164CA04202D0164C68
:102F0000A04203D122F44074CA6822434C6922F0E3
:102F10008002224302608A68C2620A688262A84212
:102F200001D0984201D10969016301214161F0BDDD
:102F3000000001400004004000080040000C004078
:102F400000040140004001400044014000480140AD
:102F500000180040001C00400020004010B5806BAD
:102F60000021C185C184FEF7AFFF10BD0168CA68AA
:102F700022F49072CA6001684A6922F001024A6133
:102F8000202180F83A10704710B590F83A102229A5
:102F900001D0022010BD8168B1F5805F11D00169B8
:102FA000002901681FD0496801F07F03816A4A1C2B
:102FB00082620B70C18D491E0904090CC18518D0AD
:102FC0002BE00269816A002A0268526805D0D2B2F9
:102FD0000A80816A491C8162ECE7C2F308020A8018
:102FE000816A891CF7E74A68816A4B1C83620A7010
:102FF000E0E70168CA6822F02002CA600168CA6876
:1030000022F48072CA6001684A6922F001024A61B2
:10301000202180F83A10FFF787F8002010BD00004B
:103020002DE9F041044600680169E26821F440514D
:1030300011430161A1682069E2690143606910439D
:1030400001432068C26849F20C639A430A43C26094
:1030500020684169A26921F4407111434161E0692E
:103060006425B0F5004F974A974920684FF0320821
:103070003FD0884201D090427CD1FEF72DF900EB81
:10308000C00101EB001061688900B0FBF1F6FEF7AA
:1030900023F900EBC00101EB001061688900B0FB6F
:1030A000F1F0B0FBF5F06FF01801484306EB80013A
:1030B00008EB0110B0FBF5F000F0F006FEF70CF99C
:1030C00000EBC00101EB001061688900B0FBF1F07A
:1030D000B0FBF5F006EB0016FEF7FEF800EBC001C2
:1030E00001EB001061688900B0FBF1F7FEF7F4F81E
:1030F000D2E0884201D090423DD1FEF7EDF800EBDE
:10310000C00101EB001061684900B0FBF1F0B0FBB9
:10311000F5F00601FEF7E0F800EBC00101EB00104E
:1031200061684900B0FBF1F7FEF7D6F800EBC0018B
:1031300001EB001061684900B0FBF1F0B0FBF5F065
:103140006FF01801484307EB800108EBC100B0FBAA
:10315000F5F000F0F80006EB4006FEF7BDF800EBD6
:10316000C00101EB001061684900B0FBF1F7FEF708
:10317000B3F83CE055E0FEF79FF800EBC00101EB2F
:10318000001061684900B0FBF1F0B0FBF5F00601FA
:10319000FEF792F800EBC00101EB001061684900F6
:1031A000B0FBF1F7FEF788F800EBC00101EB00106F
:1031B00061684900B0FBF1F0B0FBF5F06FF0180169
:1031C000484307EB800108EBC100B0FBF5F000F0CD
:1031D000F80006EB4006FEF76FF800EBC00101EBCC
:1031E000001061684900B0FBF1F7FEF765F800EBED
:1031F000C00101EB001061684900B0FBF1F0B0FBC9
:10320000F5F06FF01801484307EB800108EBC100AF
:10321000B0FBF5F000F00700216830448860BDE89D
:10322000F081FEF749F800EBC00101EB0010616886
:103230008900B0FBF1F6FEF73FF800EBC00101EBAF
:10324000001061688900B0FBF1F0B0FBF5F06FF0A1
:103250001801484306EB800108EB0110B0FBF5F0C4
:1032600000F0F006FEF728F800EBC00101EB0010BB
:1032700061688900B0FBF1F0B0FBF5F006EB0016D9
:10328000FEF71AF800EBC00101EB0010616889003D
:10329000B0FBF1F7FEF710F800EBC00101EB0010F6
:1032A00061688900B0FBF1F0B0FBF5F06FF0180138
:1032B000484307EB800108EB0110B0FBF5F000F08C
:1032C0000F00A9E7001401400010014090F83910E8
:1032D000212901D0022070478168B1F5805F016A21
:1032E0000BD04A1C0262026809785160C18C491EE9
:1032F0000904090CC1840ED017E009880268C1F3E3
:103300000801516001690029016A02D0491C01626B
:10331000ECE7891CFBE70168CA6822F08002CA60FA
:103320000068C16841F04001C160002070472DE98C
:10333000F0411E46174688460446069D1CE0681C60
:103340001AD025B1FDF79CFE801BA84214D9206835
:10335000C16821F4D071C1602068416921F0010188
:103360004161202084F8390084F83A00002084F874
:1033700038000320BDE8F0812068016838EA0100C8
:1033800004D00020B842DAD00020F3E70120F9E7AA
:103390000148FEF79BBD00007409002030B50346CC
:1033A00000224FF6FF7403EB4205B5F890552D044B
:1033B00004D5521CD2B2082AF5D32246A24205D027
:1033C00003EB420041F40041A0F89015D0B230BDAB
:1033D00070B50C4600EB4311012581F8B253C1E9E9
:1033E000EF4291F8C82302B1022281F8B8231946AE
:1033F000FEF7AAFF002070BD70B500EB4314002556
:1034000084F8B253C4E9EF1294F8C91339B1022118
:1034100084F8B8131946FEF797FF002070BD84F8B2
:10342000B853F7E730B402240C7501244C7500241E
:10343000CC820A8315064C8300EB431202D582F836
:10344000C84301E082F8C943002330BC1A4600F0AB
:1034500016B80121C0F810130020704770B50C4653
:1034600000EB4311012581F8B253022581F8B853CE
:10347000C1E9EF421946FEF767FF002070BD30B585
:103480000120CC780546012C0BD0022C08D10A7FF4
:103490000D2A10D00B2A12D00C2A01D1CD70032096
:1034A00030BD0C784C7008240C708A608B810D77CD
:1034B0000222CA7030BDCD700020087730BDCD70BB
:1034C000022030BD70B500EB4314002584F8B253E0
:1034D000C4E9EF121AB194F8C91359B102E00121FD
:1034E00084F8C913022184F8B8131946FEF72CFF9B
:1034F000002070BD84F8B853F7E710B50B4600EB19
:103500004211002481F8B243032481F8B843C1F882
:10351000BC330823C1F8C0331146FEF715FFC0B213
:1035200010BD0221002200EB4103491CC9B2A3F8DF
:1035300090250829F7D30020704770B50C4600216C
:1035400021706170A17001220546E270227740204F
:10355000A07184F8201084F821202179284600F0F9
:103560002EF86179284600F02AF8002070BD70B569
:103570000446002101F007FCE06800258561E16850
:10358000681E4861204601F0FFFCC4F8105300207B
:1035900070BD70B50C25044605290AD0042908D051
:1035A00006290BD12570D0F890000068BDE8704066
:1035B0000047D4F89000406C8047257070BD082902
:1035C00007D200EB4100B0F89015C1F30E01A0F84E
:1035D00090150020704730B442F08002DDE90254BB
:1035E0000A7506224A750322CB82B2EB132F02D151
:1035F00040F2094200E000220A834C8323462A4617
:1036000030BCFFF73CBF0A8803781A440A8001786F
:10361000084470472DE9FC47154600F58879CDE947
:103620000095002407460E464FF400732246FFF72C
:10363000D2FF5FEA000807D015E0391991F81011A0
:103640000155641CA4B200E00848AC42F5D34B46D7
:1036500006F1500206F13E0106F13400009501F03A
:1036600041F800B180464046BDE8FC87A8C500206F
:103670007CB51646044600F58870CDE900060D4677
:103680004FF4807300222046FFF7A5FF00283CD1AD
:1036900094F8101105F8221F94F81111697094F82C
:1036A000121194F81321082E01EB0221698094F87D
:1036B0001411297194F81511697194F81611A971F2
:1036C00094F81711E97120D994F8181194F8192178
:1036D00001EB0221298194F81A1194F81B2101EBC6
:1036E0000221698194F81C1194F81D2101EB02213B
:1036F000A98194F81E11A97394F81F11E97394F825
:103700002011297494F8211169747CBD7CB500F5F1
:103710008875069E1C46CDE9005642F4407300228F
:10372000FFF759FF002814D16978032911D12978AE
:103730008A1EB24200DC16460021B2B2AD1C04E083
:103740006B5C891C04F8013B89B29142F8D30021DB
:1037500021707CBD2DE9F05F002680468E740C46FA
:10376000087F0B2509270121DFF8B4914FF0050AE6
:103770004FF00C0B0C2817D2DFE800F0CE060E3904
:1037800041576479819BACC1627904F114014046D0
:10379000FFF7B3FE0220ABE061794046FEF795FDEE
:1037A000012802D004281ED0B6E0207D618B00F0F5
:1037B000800051B141F28832A9F80020802802D05F
:1037C00084F81CA008E0032005E03222A9F80020BC
:1037D000802806D0072020774046FEF76CFD208227
:1037E0009AE02777F8E7257784F812A094E0237908
:1037F000A2894046A168FFF731FE042078E02179D4
:103800004046FEF762FD01280DD0052827D0042888
:1038100073D04046FEF74FFD218A411AB9F80000E7
:1038200081426AD878E02777F3E7627908EB4210A3
:1038300080F8C9136379A2894046A168FFF742FE68
:10384000062055E061794046FEF73FFD012804D08F
:10385000052804D0022807D044E0072048E060781B
:10386000207084F81CB057E084F81CA054E00022BB
:10387000237911464046FFF7F1FD082038E0217911
:103880004046FEF722FD074601282ED0042F34D0F3
:103890004046FEF710FD218A411AB9F80000814226
:1038A0002BD8052F38D16078207084F81CB00326FF
:1038B00032E06179002208EB411090F8C91381F0E1
:1038C000010180F8C913637911464046FFF7FAFDFC
:1038D0000A200DE061794046FEF7F7FC012804D08C
:1038E000022808D0042808D016E0607820700D2047
:1038F000207711E001E027770EE025770CE0A07B30
:10390000401CC0B2A073022801D8217704E008202F
:10391000A0746078207002263046BDE8F09F000059
:10392000A40000202DE9F0410C468046012589784D
:103930000026FF2092B02F460A2952D2DFE801F07C
:10394000051F2E525F71849BAEB808222146404667
:10395000FFF78EFE002844D194F82900A071A770CB
:10396000CDE90060002361791A46404600F022FE4E
:10397000A0790023CDE9006021791A462EE01222B9
:1039800021464046FFF774FE00282AD1D4F8900063
:10399000C16904F122008847022087E00122214604
:1039A000404601F038F800281BD1022001F028FA27
:1039B00084F82070D4F89000A41C006A804703208B
:1039C000207000960196A27FA1780023404600F067
:1039D000F1FD00960196A27FE1780023404600F0B9
:1039E000E9FD66E0092221464046FFF713FE002864
:1039F0005FD1E08EB0F5806F5BD8042056E0E28E98
:103A000021464046FFF706FEA0BBD4F8900004F123
:103A1000500204F13E01436A04F134009847052046
:103A200044E094F83020062652B1009002AB2146C3
:103A30004046FFF76BFEE8B9D4F89000816A11E0C8
:103A4000D4F89000816A12E094F8312007265AB128
:103A5000009002AB21464046FFF758FE50B9D4F81B
:103A60009000C16A02A803E0D4F89000C16A13A0D4
:103A70008847A6701DE094F83220082652B10090C5
:103A800002AB21464046FFF741FE90B9D4F89000C2
:103A9000016BE7E7D4F89000016BE8E794F8392070
:103AA0002146404600F0C3FF18B90920A07000E08D
:103AB000002512B02846BDE8F08100004E2F4100DD
:103AC0002DE9F0411D4614460F468046069E01F042
:103AD00067F9002001F056F921464046FFF72DFD19
:103AE000E4E9235639464046FEF7F8FB6068006873
:103AF00080474046BDE8F04101F046B970B5044644
:103B00000A4D012012B1012A08D102E02B78EA788F
:103B100001E06B78AA782046FFF784FC044A11691B
:103B2000491C1161042900D9042070BDE8C7002098
:103B3000AC0000200149002008707047D8C7002061
:103B400070B505460124FEF7F4FBD8B110480178A2
:103B50002846FEF7BEFB0D2813D10E480E4A016819
:103B600091420ED1A0F1200241685268914209D1E0
:103B7000007B20B1012805D0022802D002E00024F9
:103B800000E0022403481030C473204670BD0000DA
:103B9000E8C70020C8C70020555342530A490A23EA
:103BA000012802D002280CD07047084A1078401C27
:103BB000C0B210700A2804D2062008700120C87014
:103BC00070470B7070470000D8C70020C00000206D
:103BD0002DE9F05F0E4683460124FEF7AAFB00287C
:103BE0007FD0454D0027DFF814912878DFF8108149
:103BF0004FF0080A0B2874D2DFE800F006730B427E
:103C00004B56765E63367200584600F0A5F90220E6
:103C100028E0A1223275FE227275F78237830127D0
:103C2000364A5846314677833B460832FFF727FC31
:103C300004004FF0030202D0032C11D051E099F898
:103C4000080089F8480010B198F8011009B12A70ED
:103C500047E088F80170D6F89000006C804740E09B
:103C60006A70092028703CE073790022314658467A
:103C7000FFF7D8FB040034D189F848706878F1E781
:103C8000584600F009FC08B9042008E0FFF786FF59
:103C900027E0584600F060FB0028F7D10520287087
:103CA00088F8007000241CE0584600F09BFA0028B9
:103CB000ECD185F800A0F3E73146584600F022F831
:103CC0000FE0D6F89000C06B804710F0FF0002D0E4
:103CD000012803D005E085F800A002E0062400E0FA
:103CE00004242046BDE8F09F584600F085FB0028DC
:103CF000CCD168782870D5E7D8C70020E8C7002065
:103D0000C00000202DE9F35F89460098FEF711FB03
:103D1000002869D08D4C02278D4A20798D4D0026D0
:103D20004FF0080A4FF005084FF0010B09285BD24D
:103D3000DFE800F05A05103B75BDD4F2FF0083495F
:103D400053781F2230390098FFF756FB84F805B0EE
:103D5000277186E051780098FEF7B7FA012804D061
:103D6000022816D0052816D0C0E078482E613038D9
:103D70006771017B806801F0800100287ED0686057
:103D8000A068A860E860802901D00420C0E003207A
:103D9000BEE06079BCE085F800B0C7E06878401C00
:103DA000C0B268700328F4D3CDE091461178009832
:103DB000FEF78BFA012802D0617903291FD0032076
:103DC0002E616071B9F8042068684F4682420DD2B6
:103DD0003B78A9680098FFF7FBFAB8886968091A68
:103DE0006960A9680844A860BDE8FC9FD8B382B2A6
:103DF00099F80030A9680098FFF7EAFA3CE0052836
:103E000009D00428F0D16878401CC0B2687003283B
:103E100070D22171E8E72E700720207144E09146AE
:103E200051780098FEF751FA012804D0022828D0D2
:103E3000052835D05AE004202E616071B9F80620BB
:103E400068684F4682420FD27B78A9680098FFF7D6
:103E5000D3FAA868E860F9880844A8606868401A3E
:103E600068606E70C0E709E040B182B299F8013035
:103E7000A9680098FFF7C0FA6E60B5E784F804807F
:103E8000B2E7D5E9021099F80130B9F8062081426D
:103E900000D0891A009802B0BDE8F05FFFF7ACBA15
:103EA00085F800B084F804A084F805809CE72749D1
:103EB00084F8058010393F20A160A0810C200F46B6
:103EC0003E54401E10F0FF00FAD13E7013783F229E
:103ED0000098FFF77DFA06202071C2E7117800985C
:103EE000FEF7F3F9012806D005280FD004283FF487
:103EF00055AF79E727E02E6184F80580A07820701F
:103F000049460098FFF71CFEE0736DE72E7007200E
:103F1000207169E70DE0FFE7002249460098FFF7AE
:103F2000EDFD70B9287802287FF433AF84F804A03F
:103F30005AE7012249460098FFF7E0FD00283FF4C8
:103F400028AF04288ED1E7734EE70000D8C70020C1
:103F5000E8C70020AC00002010B5FEF7EAF9002108
:103F600048B10848064A0260074A42604173054A60
:103F700001203032D070054801610548017010BD44
:103F800055534243A8C7002050403020AC000020C9
:103F9000C000002070B50C4C06460025617831B198
:103FA00001F09BF861783046FFF709FB65702178D6
:103FB000002907D0304601F090F821783046FFF70D
:103FC000FEFA257070BD0000E8C700202DE9FC4115
:103FD0000C4691F84310064608290ED0092955D001
:103FE000022955D0032955D0072955D00B2955D082
:103FF0000E2955D0102955D003E094F845005028DB
:1040000009D029A002F096F9D4F89000006C8047FE
:104010000020BDE8FC8194F852002E4D010604D525
:10402000E870B4F85400A88003E0A870B4F8540015
:10403000E88094F85A00010604D5E870B4F85C00F2
:10404000A88003E0A870B4F85C00E880A978304646
:10405000FFF7A4F96870E9783046FFF79FF92870F8
:10406000E8880227CDE9007094F8213014F8202F59
:104070006978304600F00BFBA888CDE900706378C2
:1040800022782978304600F002FBC1E712A0B9E798
:1040900017A0B7E725A0B5E72CA0B3E734A0B1E798
:1040A0003DA0AFE745A0ADE7546865206174746139
:1040B0006368656420646576696365206973206E52
:1040C0006F7420737570706F727465642E200D0AA2
:1040D00000000000E8C70020487562206973206E68
:1040E0006F7420737570706F727465642E0D0A00A2
:1040F000436F6D6D756E69636174696F6E73206176
:104100006E642043444320436F6E74726F6C20646E
:104110006576696365206973206E6F7420737570AE
:10412000706F727465642E0D0A00000048494420C7
:10413000646576696365206973206E6F742073759A
:1041400070706F727465642E0D0A00005072696E93
:1041500074657220646576696365206973206E6F8B
:104160007420737570706F727465642E0D0A000090
:10417000536D617274204361726420646576696373
:1041800065206973206E6F7420737570706F727420
:1041900065642E0D0A000000566964656F20646531
:1041A0007669636520206973206E6F742073757063
:1041B000706F727465642E0D0A00000041756469A9
:1041C0006F2F566964656F20446576696365732057
:1041D0006973206E6F7420737570706F727465648C
:1041E0002E0D0A0070B50324FEF7A3F830B3214D5D
:1041F000214E0022E8780123012802D0022836D17E
:104200001DE01E493F2480208C6008730A208873BB
:104210000520AE60A8700F200E18401EF27310F03B
:10422000FF00F9D11A20C8734C74CC742B7107208D
:1042300028700320E8730220E870032417E0E87B6D
:1042400020B101280ED002280FD010E0B07801066E
:104250000948A0F1100001D5037300E00273EB7070
:10426000002404E0EB70012401E0EB7002242046FE
:1042700070BD0000D8C7002044C80020A8C7002097
:104280002DE9FF4F314D81B04FF0030985F80090C3
:10429000984614460198FEF74CF8C0B32C4F0126FF
:1042A0004FF0020BF8784FF0000A012802D00228E4
:1042B00047D12DE0274980205246C1F80880087375
:1042C0000A2088730298B8600F200B18401EDA731A
:1042D00010F0FF00F9D12820C873200E4874200C7C
:1042E0008874200AC8740C754FEA5820ADF8000095
:1042F0009DF8010088759DF80000C8753E71072083
:10430000387087F80F9087F803B085F8009018E0B0
:10431000F87B38B90198FEF70CF818B1FE7085F8F3
:1043200000A00EE0F87B012805D10198FEF701F806
:1043300008B1FE7005E0F87B022802D1FE7085F816
:1043400000B0287805B0BDE8F08F0000D400002050
:10435000D8C70020A8C7002070B50324FDF7E9FFE7
:1043600020B3224D01232248E978012902D00229F5
:104370003AD11CE01F4908228A6080220A730A226F
:104380008A73A8600420A8700F2000220C18401E19
:10439000E27310F0FF00F9D12520C8732B710720BC
:1043A00028700320E8730220E87003241CE0E97BF6
:1043B00021B1012913D0022914D015E00C4902784B
:1043C00010390024CA7042788A7082784A70C278A4
:1043D0000A7082794A72C0790872EB7004E0EB705F
:1043E000012401E0EB700224204670BDD8C70020F4
:1043F00044C80020A8C7002070B50324FDF799FF2A
:1044000038B3224D0123224AE878012802D002283D
:1044100039D11FE01F493F2480208C6008730A2097
:104420008873AA60A87868700620A8700F20002200
:104430000E18401EF27310F0FF00F9D10320C8736C
:104440000A74CC742B7107212970E8730220E8707C
:10445000032418E0E87B20B101280FD0022810D0F7
:1044600011E00B48117810380024C1715178817126
:1044700091784171D1780171EB7004E0EB70012407
:1044800001E0EB700224204670BD0000D8C7002078
:1044900044C80020A8C7002070B50324FDF749FFD9
:1044A00010B31A4D0123E878012802D002282BD13D
:1044B0001BE01749002206208A600A73887315489A
:1044C000A8603F20A8810324AC700F200E18401E66
:1044D000F27310F0FF00F9D1CA732B710720287016
:1044E000EC730220E87003240EE0E87B20B1012881
:1044F00005D0022806D007E0EB70002404E0EB7042
:10450000012401E0EB700224204670BDD8C70020D2
:10451000A8C70020C8C70020F8B51E4615460F469C
:104520000324FDF706FF78B3204B0122D878012839
:1045300002D0022837D128E01D4C00210A20A660B5
:104540002173A0730F209F602718401EF97310F08D
:10455000FF00F9D12A20E073280E6074280CA074A3
:10456000280AE0742575700AADF800009DF8010076
:10457000A0759DF80000E0751A71072018700320DF
:10458000D8730220D87003240DE0D87B20B1012815
:1045900005D0022805D006E0DA70002403E0DA70C6
:1045A00001E0DA7002242046F8BD0000D8C70020E0
:1045B000A8C7002070B500EB4114059D0AB184F82E
:1045C000B023B4F8B623AA4202D00DB1A4F8B65372
:1045D00094F8B3239A4202D00BB184F8B33300F0BD
:1045E0009FFD002070BD38B50546002400200090D6
:1045F000284600F097FE002847D0284600F099FE94
:104600000090009808B9002038BD0098C0F3C000A1
:1046100018B1284601F004FE04430098C0F30010CE
:1046200018B1284601F049FD04430098C0F340103A
:1046300018B1284601F075FB04430098C0F3806070
:1046400018B1284601F0A2FC04430098C0F3406072
:1046500018B1284600F04FFF04430098C0F30060F3
:1046600018B1284601F0F4FB04430098C0F34070F1
:1046700018B1284600F006FF04430098C0F34050EC
:1046800018B1284600F014FF04432046BCE72DE98A
:10469000F04100EB4105DDE9066795F8904504F02F
:1046A0007F0C00EB411484F8B1C395F89055C5F325
:1046B000C01584F8B25384F8B02384F8B563A4F825
:1046C000B67384F8B333002284F8C82384F8C9236E
:1046D00013B9012284F8B42300F022FD0020BDE8C4
:1046E000F08100002DE9FF4F85B007461878129938
:1046F00038705878787092469878DA781C4600EBD3
:1047000002207880187938715A797A719A79BA7159
:10471000DA79FA71227A3A7209296FD90921ADF84A
:104720000C1002286ED8DFF8E0805DE003A9204677
:10473000FEF769FF04464078042855D194F90260D9
:10474000069806EBC60101EB000BE07803284BD27C
:104750002146684600F05AF89DF804000025032819
:104760003ED94FE003A92046FEF74DFF04464078AE
:10477000052835D106EB46010AEBC10000EBC5095F
:1047800098F80000B04202D088F8006007E0207975
:10479000617900EB0121B8F80200814224D3694617
:1047A000584600F033F8217889F80010617889F8CC
:1047B0000110A17889F80210E17889F803102179B5
:1047C00062796D1C01EB0221A9F80410A17989F826
:1047D0000610207961796DB200EB0120A8F8020083
:1047E0009DF80400A842BDDC7888BDF80C10884212
:1047F0009CD80020A8F8020088F80000002009B02A
:10480000BDE8F08F0320FAE7A60000200A780270C6
:104810004A7842708A788270CA78C2700A790271C6
:104820004A7942718A798271CA79C271097A0172B0
:1048300070470021C0F81413084670470121C0F8E2
:104840001413002070472DE9FC4102260C468046D7
:104850008DF80060FDF76DFD18B14046FDF76CFD69
:1048600028B9207818B1032801D0032020702078BF
:10487000002504F120070D285CD2DFE800F0071BBB
:1048800025AE5B5D7A8E97695B5B9D004046FDF7C8
:1048900050FD00284ED001202070642000F0B0FAB6
:1048A0004046FDF74CFDD4F89000C06802B0BDE86A
:1048B000F0410047D8F8140301283BD12670BDE829
:1048C000FC41322000F09CBAD4F890008068804708
:1048D00000214046FEF762FD607180214046FEF7F0
:1048E0005DFD20714046FDF72AFD002822D1D4F855
:1048F0009000A41CC06880474046FDF7E0FCC0B2B1
:10490000E077052104F8021CD4F88E1089698847E5
:104910002079CDE90050E37FA27FA1784046FFF7E0
:10492000B6FE2079CDE90050E37FA27FE1784046D2
:10493000FFF7ADFEBDE8FC8121464046FEF7F2FFE1
:104940000028F7D1D4F89000406B804709200EE092
:10495000D4F89000806B80470128EBD1D4F88C000C
:1049600021460268404690470028E3D10620207087
:10497000E0E7D4F88C0021468268404690478DF8E5
:1049800000009DF8000008B90720F0E79DF800102E
:104990002046BDE8FC41FEF7FCBDD4F88C00214662
:1049A000C268404690478DF80000EFE72146404638
:1049B000BDE8FC41FEF7CEBE21464046FEF7BDFDF8
:1049C000D4F890008C3440688047206839464268AB
:1049D00002B04046BDE8F0411047D4F890000069AD
:1049E000804721464046FEF7A8FDD4F89000406875
:1049F0008047D4F88C00394642684046904740468C
:104A0000FEF78FFD25704046BDE8FC410121FDF712
:104A100065BC0020704730B400230B7505244C752D
:104A2000CA820B834B8330BC1A46FEF728BD30B4D4
:104A300000230B7509244C75CA820B834B8330BC51
:104A40001A46FEF71CBD00002DE9F0410646174648
:104A50000D4601240F48FDF76CFCA8B10E48007804
:104A6000012811D17F023B462A4631460948FFF70B
:104A700007FC044609490748FFF744F90548FDF7D4
:104A800058FC20B1032CEED02046BDE8F081012473
:104A9000FAE700001402002020010020800100201D
:104AA00010B50248FDF745FCC0B210BD140200204D
:104AB0002DE9F041064617460D4601240F48FDF743
:104AC00038FCA8B10E480078012811D17F023B467E
:104AD0002A4631460948FFF71FFD044609490748A1
:104AE000FFF710F90548FDF724FC20B1032CEED0A8
:104AF0002046BDE8F0810124FAE7000014020020FE
:104B000020010020800100204879082804D00328D3
:104B100004D103A001F00EBC04A0FBE77047000025
:104B200048494420C9E8B1B8210D0A00BFC9D2C61E
:104B3000B6AFB4E6B4A2C6F7C9E8B1B8210D0A0011
:104B400001490020087070472001002001A001F0F9
:104B5000F1BB0000B4D3BBFAB5D8D6B7B7D6C5E41D
:104B6000B3C9B9A6210D0A0001A001F0E3BB000002
:104B7000BCECB2E2B5BD555342C9E8B1B8B2E5C824
:104B8000EB210D0A0000000001A001F0D3BB0000E2
:104B9000555342C9E8B1B8B0CEB3F6210D0A0000B2
:104BA00001A001F0C7BB0000CEDEB7A8CAB6B1F0C5
:104BB000B5C4555342C9E8B1B8210D0A0D0A000029
:104BC00030B1012806D0022806D004A001F0B2BB03
:104BD00005A0FBE709A0F9E70DA0F7E7C9E8B1B820
:104BE000B4EDCEF3210D0A00B8DFCBD92848532904
:104BF000555342C9E8B1B8210D0A0000C8ABCBD962
:104C000028465329555342C9E8B1B8210D0A00007E
:104C1000B5CDCBD9284C5329555342C9E8B1B82159
:104C20000D0A000010B50446018904A001F082FBC2
:104C30006189BDE8104005A001F07CBB5649443AAB
:104C40002025303458680D0A000000005049443ACD
:104C50002025303458680D0A0000000001A001F042
:104C600069BB0000C9E8B1B8C3B6BED9CDEAB3C9C3
:104C7000210D0A0D0A0000007047000070B5094DB3
:104C80000024297811B1012909D105E006A001F01D
:104C900051FB0120287002E001F0ECFA00242046CC
:104CA00070BD000020010020BFAACABCD6B4D0D07D
:104CB000D3C3BBA7B3CCD0F22121210D0A00000041
:104CC000014601A001F036BB4D616E7566616374EB
:104CD000757265723A2025730D0A000001A001F07B
:104CE00029BB0000B6CBBFDAB5E7C1F7B9FDB4F315
:104CF0002121210D0A000000014601A001F01ABB8C
:104D000050726F647563743A2025730D0A000000B9
:104D100001A001F00FBB0000B8B4CEBBC9E8B1B828
:104D20002E2E2E0D0A000000014601A001F002BB4C
:104D300053657269616C204E756D6265723A20250B
:104D4000730D0A0001A001F0F5BA0000CEDEB7A88D
:104D5000BBD6B8B4B5C4B4EDCEF32121210D0A0DF4
:104D60000A00000010B502A001F0E4FA012010BD15
:104D7000CCF8B9FDD3C3BBA7C8B7C8CFB2BDD6E87E
:104D8000210D0A007047704710B50322002143200F
:104D9000FCF7C8F9BDE810404320FCF7B6B90000A5
:104DA000154800B5026887B0002142F00102026098
:104DB000006800F0010005900F48001D026842F0F5
:104DC000800202600C481430026842F480420260A3
:104DD000006800F4804005904FF4C050009002201D
:104DE000CDE90101032003900A200490694603489D
:104DF000FCF756F807B000BD303802400000024012
:104E000080B201F0A5BF01F0B1BF70B50446017AD0
:104E10000025C068012915D0C16841F04001C1607A
:104E2000204600F085F8617A4FF4341009B14FF450
:104E30007410E16888631420FFF7E2FFE07801282E
:104E400019D020E0816B627A21F480310AB141F4FB
:104E500080118163E068C16821F0401121F42021B4
:104E6000C160204600F064F8E07801280BD1E168C9
:104E70002A208860E2E7E068816821F01E010A319B
:104E800041F020018160284670BD2DE9F0410027E6
:104E900004463D463E46FFF775FFD4F80C01066018
:104EA000207A01280FD00121204600F02FFA204659
:104EB00000F05DFA6069016821F004010160E07AA8
:104EC000012802D015E00021EEE7E0688021416270
:104ED000304661F30F00E268602161F31F40906289
:104EE000E022304662F30F0061F31F40E168C1F831
:104EF00000011021204600F0B9F8204600F098F893
:104F00004FF0FF3107E004EB850050F8902F9160DF
:104F10000068C6606D1C2078A842F4D801212046A4
:104F200000F03AF8204600F05DF83846BDE8F08120
:104F3000F8B50026044637460096124D0320FFF7C9
:104F400062FFE068006900907F1CAF4201D9002039
:104F5000F8BD00980028F1DA0098002140F0010027
:104F600000900098E2681061E06802690092491CB4
:104F7000A94202D8009AD207F7D10320FFF743FFD6
:104F80003046F8BD400D0300C0680022816821F062
:104F9000010181601046704770B50C460546FFF769
:104FA000F2FE284600F0CAF9C10408D4012C04D14D
:104FB000D5F8CC1040F480500860C10405D524B960
:104FC000D5F8CC1020F480500860BDE87040C820AF
:104FD000FFF716BFC0680022816841F001018160BF
:104FE0001046704710B5C268002421469461C3681A
:104FF000621E5A61C3685A60C3686FF080425A618A
:10500000C368094A9A61C27802B91021C36841F0A5
:1050100048729969914311439961C0680349826953
:105020008A438261204610BD0008008008000020ED
:1050300038B50024024621460094009840F0100044
:1050400000900098D36818610748D26813690093EC
:10505000491C814202D8009BDB06F7D40320FFF7EE
:10506000D2FE204638BD0000400D030038B50024B4
:10507000034622460094009840F0200000900098DB
:1050800061F38A1000900098D96808610748D968D0
:105090000B690093521C824202D8009B9B06F7D4F6
:1050A0000320FFF7B0FE204638BD0000400D03008E
:1050B00010B500EB8100002350F8901F4FF0004224
:1050C000012464F3DC420A610068016821F0804138
:1050D00041F000410160184610BD30B500EB81047D
:1050E0000023D4F89020116841F0804111F4402F42
:1050F00009D0C1F38145022D05D04069006910F443
:105100007F0F03D005E0C068C06AF8E721F00041D6
:10511000116041F00040D4F890100860184630BD8E
:10512000F0B500EB81060027D6F890403D467B1E87
:105130002A46A360C378012B00D1042200EB41135F
:1051400093F8B54334B1012C1FD0022C02D0032CAC
:1051500027D10EE042F0890293F8B24342F4826212
:1051600084B993F8B44342F04002D4B142F0200233
:1051700017E093F8B2C342F0990242F4C062BCF166
:10518000000F0ED042F480720BE093F8B2C342F0ED
:10519000010242F40872BCF1000F02D042F080021A
:1051A000F0E7D6F89040E26001228A4041698C69BC
:1051B00014438C61C068816941F00071816193F88A
:1051C000B00360F39C5593F8B10360F3CE2593F8D8
:1051D000B20360F3CF3593F8B30302280CD025F463
:1051E000003093F8B513B3F8B62361F3934062F33C
:1051F0000A00032903D004E045F40030F1E740F051
:105200000050D6F8901008603846F0BDF0B500EBBD
:1052100041140026D4F8C03305464FF4807C37464D
:105220006BB1B4F8B6239818401EB0FBF2F080B210
:10523000604505D912026046C4F8C02300E0012091
:1052400094F8B223AAB1B4F8B6234243C4F8C023F9
:1052500062F3120760F3DC4794F8B80305EB8102B0
:1052600060F35E77D2F890000761E878012803D0F8
:1052700007E0D4F8C023EBE7D2F89030D4F8BC03B1
:10528000586152F8900F0368284600F045F860F323
:105290005D73126823F0804040F000401060E878B1
:1052A00090BB94F8B20378BBD4F8C02362B394F8EF
:1052B000B50330B1012810D0022802D0032819D13B
:1052C0000BE0E868C36AD21CC2F38F029BB2934220
:1052D00010D2826942F020020BE068690069D21C9A
:1052E000C2F38F0280B2904204D2E868826942F031
:1052F00080628261B4F8C0030A4683B2D4F8BC036A
:105300000146284600F0A2FF3046F0BD4069026821
:1053100061F30102026070474069806840F3000059
:10532000401C7047C068406910F0010000D00120A7
:105330007047C0684169806908407047D0F8CC0068
:10534000006820F02E00704740694069704710B532
:1053500004460023D21C9008D4F8D02003E014683F
:1053600041F8044B5B1C8342F9D3084610BD70B56D
:105370000546FFF7E3FF40F4807455F8CC0F046056
:105380006420FFF73DFD296824F480700860142034
:10539000FFF736FD012070BD70B500220123C270F9
:1053A00040268370154614468680012901D061B1DC
:1053B00014E0C3720821017004214FF0A042417033
:1053C0009115C1800221017208E0C4720C210170A4
:1053D000062141701F4A4FF4A061C18002F50061AF
:1053E000C0E9032100210AE002EB411303F5106636
:1053F00000EB810403F53063A661491C63654378C3
:105400008B42F1D802F5806141614031C0F8CC1087
:10541000002108E002EB411300EB810403F5A063D7
:10542000491CC4F8903003788B42F3D8002108E07F
:1054300002EB013300EB810403F58053491CC4F8EF
:10544000D03003788B42F3D802F56062C0F80C21AB
:10545000284670BD0000044010B5C3680024D86819
:10546000012920F0C04201D019B104E042F00052FD
:1054700001E042F08042DA603220FFF7C1FC2046B2
:1054800010BD000038B504460020009007480068B1
:10549000816820468847009820F0005000F10050B5
:1054A00000900098E1684861012038BDA00000200C
:1054B0000CB50146D1F8900000680090009820F0EB
:1054C000004000F100400090009820F0804000F182
:1054D00080400090009AD1F8900002600020019076
:1054E000019820F4001000F5001001900198CA689E
:1054F000506101200CBD7CB50546002400262846DD
:10550000FFF722FF019000BF1BE0019880B201214C
:10551000A1400840A0B105F1900050F824000068B7
:1055200000900098C0F3C03028B12146284600F012
:105530000DF8064304E02146284600F016FA06431B
:10554000641C2878A042E0D830467CBD70B586B097
:1055500005460C4605F1900050F82460B0680590AF
:10556000F0680490DDE904100840059005F1900012
:1055700050F8240000680390002004900598C0F3C0
:105580008000D0B100200190019820F00400001D9F
:1055900001900198B06005F1900050F82400C068B7
:1055A0000190019820F00200801C019005F190000C
:1055B00050F824000199C16073E00598C0F34010D1
:1055C00048B100200190019820F020002030019087
:1055D0000198B06065E00598C0F3C00078B305F1AC
:1055E000900050F82400C0680190019820F002005B
:1055F000801C019005F1900050F824000199C160D1
:10560000052105F56470015500200190019820F0F6
:105610001000103001900198B060002001900198B6
:1056200020F00800083001900198B060059820F043
:1056300010000590E1B22846FFF74FFD31E0FFE78B
:105640000598C0F3802060B305F1900050F8240065
:10565000C0680190019820F00200801C019005F1C3
:10566000900050F824000199C160E1B22846FFF78C
:1056700034FD00200190019820F0100010300190BE
:105680000198B060082105F5647001550020019073
:10569000019820F4806000F5806001900198B0606E
:1056A00000BF0598C0F34020F8B105F1900050F814
:1056B0002400C0680190019820F00200801C019035
:1056C00005F1900050F824000199C160E1B228462C
:1056D000FFF703FD00200190019820F4007000F511
:1056E000007001900198B0603CE1059800F0010065
:1056F000002871D0E878012812D105F1900050F807
:1057000024000069029005F56C7000EB44100069FC
:105710000299C1F31201411A05F5557040F82410A1
:10572000012105F5647001550021783840F82410F6
:1057300000200190019820F00100401C0190019888
:10574000B0600398C0F3814020B10398C0F381405A
:1057500002282AD105F1900050F82400C068019079
:10576000019820F00200801C019005F1900050F893
:1057700024000199C160E1B22846FFF7AEFC002089
:105780000190019820F01000103001900198B06055
:1057900005F56C7000EB4410007E80F0010105F50A
:1057A0006C7000EB44100176DCE00398C0F381409C
:1057B000032899D1039820F0005000F10050039085
:1057C00005F1900050F8240003990160012105F2D1
:1057D0009F300155C6E0FFE70598C0F34000002860
:1057E00051D005F1900050F82400C0680190019854
:1057F00020F00200019005F1900050F8240001997A
:10580000C16005F56470005D012804D1012105F235
:105810009F3001552DE005F56470005D052804D129
:10582000052105F29F30015523E005F56470005D08
:10583000062804D005F56470005D082808D1002111
:1058400005F5467040F8241004218730015510E01A
:105850000398C0F3814003280BD105F56C7000EB71
:105860004410007E80F0010105F56C7000EB4410DF
:10587000017600200190019820F00200801C019028
:105880000198B0606EE00598C0F3C01010B305F148
:10589000900050F82400C0680190019820F00200A8
:1058A000801C019005F1900050F824000199C1601E
:1058B000062105F564700155E1B22846FFF70DFC9D
:1058C00000200190019820F0800080300190019824
:1058D000B06047E00598C0F30010E0B30398C0F350
:1058E0008140032816D105F1900050F82400C068CB
:1058F0000190019820F00200801C019005F19000B9
:1059000050F824000199C160E87818B9E1B228463E
:10591000FFF7E3FB032105F56470015500200190BA
:10592000019820F01000103001900198B0600398A9
:10593000C0F3814020B10398C0F38140022811D107
:10594000039820F0004000F100400390039820F0FD
:105950008040039000E005E005F1900050F824003D
:1059600003990160012006B070BD7FB505460C4665
:1059700005F1900050F82460B0680390F068029040
:10598000DDE902100840039005F1900050F8240072
:10599000006801900398C0F38000D0B1002000900F
:1059A000009820F00400001D00900098B06005F100
:1059B000900050F82400C0680090009820F0020089
:1059C000801C009005F1900050F824000099C160FF
:1059D000A4E10398C0F3401048B100200090009863
:1059E00020F02000203000900098B06096E10398ED
:1059F000C0F34020F8B105F1900050F82400C068D1
:105A00000090009820F00200801C009005F19000AA
:105A100050F824000099C160E1B22846FFF75DFB11
:105A200000200090009820F4007000F500700090B5
:105A30000098B06072E1039800F0010038B30021D3
:105A400005F5467040F8241005F1900050F8240048
:105A5000C0680090009820F00200801C009005F1C2
:105A6000900050F824000099C160E1B22846FFF789
:105A700034FB00200090009820F00100401C0090B2
:105A80000098B060012105F56470015546E1039866
:105A9000C0F3C00010B300200090009820F0080070
:105AA000083000900098B06005F1900050F8240094
:105AB000C0680090009820F00200801C009005F162
:105AC000900050F824000099C160E1B22846FFF729
:105AD00004FB052105F5647001551FE10398C0F32F
